{
  "_format": "hh-sol-artifact-1",
  "contractName": "Evoting",
  "sourceName": "contracts/Evoting.sol",
  "abi": [
    {
      "inputs": [],
      "stateMutability": "nonpayable",
      "type": "constructor"
    },
    {
      "anonymous": false,
      "inputs": [
        {
          "indexed": true,
          "internalType": "address",
          "name": "newOwner",
          "type": "address"
        }
      ],
      "name": "OwnershipClaimed",
      "type": "event"
    },
    {
      "inputs": [
        {
          "internalType": "address",
          "name": "_adrs",
          "type": "address"
        }
      ],
      "name": "AddCandidate",
      "outputs": [],
      "stateMutability": "nonpayable",
      "type": "function"
    },
    {
      "inputs": [
        {
          "internalType": "uint256",
          "name": "_indexCandidate",
          "type": "uint256"
        }
      ],
      "name": "Vote",
      "outputs": [],
      "stateMutability": "nonpayable",
      "type": "function"
    },
    {
      "inputs": [],
      "name": "VotingEnd",
      "outputs": [],
      "stateMutability": "nonpayable",
      "type": "function"
    },
    {
      "inputs": [],
      "name": "VotingStart",
      "outputs": [],
      "stateMutability": "nonpayable",
      "type": "function"
    },
    {
      "inputs": [],
      "name": "Winner",
      "outputs": [
        {
          "internalType": "address[]",
          "name": "",
          "type": "address[]"
        },
        {
          "internalType": "uint256",
          "name": "",
          "type": "uint256"
        }
      ],
      "stateMutability": "view",
      "type": "function"
    },
    {
      "inputs": [
        {
          "internalType": "uint256",
          "name": "",
          "type": "uint256"
        }
      ],
      "name": "candidate",
      "outputs": [
        {
          "internalType": "address",
          "name": "addr_candidate",
          "type": "address"
        },
        {
          "internalType": "uint256",
          "name": "num_votes",
          "type": "uint256"
        }
      ],
      "stateMutability": "view",
      "type": "function"
    },
    {
      "inputs": [],
      "name": "claimOwnership",
      "outputs": [],
      "stateMutability": "nonpayable",
      "type": "function"
    },
    {
      "inputs": [],
      "name": "getAllCandidates",
      "outputs": [
        {
          "components": [
            {
              "internalType": "address",
              "name": "addr_candidate",
              "type": "address"
            },
            {
              "internalType": "uint256",
              "name": "num_votes",
              "type": "uint256"
            }
          ],
          "internalType": "struct Evoting.data_candidate[]",
          "name": "",
          "type": "tuple[]"
        }
      ],
      "stateMutability": "view",
      "type": "function"
    },
    {
      "inputs": [],
      "name": "getVoteHistory",
      "outputs": [
        {
          "components": [
            {
              "internalType": "address",
              "name": "voter",
              "type": "address"
            },
            {
              "internalType": "address",
              "name": "candidate",
              "type": "address"
            },
            {
              "internalType": "uint256",
              "name": "timestamp",
              "type": "uint256"
            }
          ],
          "internalType": "struct Evoting.VoteRecord[]",
          "name": "",
          "type": "tuple[]"
        }
      ],
      "stateMutability": "view",
      "type": "function"
    },
    {
      "inputs": [],
      "name": "hideVotes",
      "outputs": [
        {
          "internalType": "bool",
          "name": "",
          "type": "bool"
        }
      ],
      "stateMutability": "view",
      "type": "function"
    },
    {
      "inputs": [
        {
          "internalType": "address",
          "name": "_voter",
          "type": "address"
        }
      ],
      "name": "isVoterRegistered",
      "outputs": [
        {
          "internalType": "bool",
          "name": "",
          "type": "bool"
        }
      ],
      "stateMutability": "view",
      "type": "function"
    },
    {
      "inputs": [],
      "name": "owner",
      "outputs": [
        {
          "internalType": "address",
          "name": "",
          "type": "address"
        }
      ],
      "stateMutability": "view",
      "type": "function"
    },
    {
      "inputs": [
        {
          "internalType": "address",
          "name": "",
          "type": "address"
        }
      ],
      "name": "participant_vote",
      "outputs": [
        {
          "internalType": "bool",
          "name": "",
          "type": "bool"
        }
      ],
      "stateMutability": "view",
      "type": "function"
    },
    {
      "inputs": [
        {
          "internalType": "address",
          "name": "",
          "type": "address"
        }
      ],
      "name": "regis_candidate",
      "outputs": [
        {
          "internalType": "bool",
          "name": "",
          "type": "bool"
        }
      ],
      "stateMutability": "view",
      "type": "function"
    },
    {
      "inputs": [
        {
          "internalType": "address",
          "name": "_voter",
          "type": "address"
        }
      ],
      "name": "registerVoter",
      "outputs": [],
      "stateMutability": "nonpayable",
      "type": "function"
    },
    {
      "inputs": [],
      "name": "toggleHideVotes",
      "outputs": [],
      "stateMutability": "nonpayable",
      "type": "function"
    },
    {
      "inputs": [
        {
          "internalType": "uint256",
          "name": "",
          "type": "uint256"
        }
      ],
      "name": "voteHistory",
      "outputs": [
        {
          "internalType": "address",
          "name": "voter",
          "type": "address"
        },
        {
          "internalType": "address",
          "name": "candidate",
          "type": "address"
        },
        {
          "internalType": "uint256",
          "name": "timestamp",
          "type": "uint256"
        }
      ],
      "stateMutability": "view",
      "type": "function"
    },
    {
      "inputs": [],
      "name": "votingEnd",
      "outputs": [
        {
          "internalType": "bool",
          "name": "",
          "type": "bool"
        }
      ],
      "stateMutability": "view",
      "type": "function"
    },
    {
      "inputs": [],
      "name": "votingStart",
      "outputs": [
        {
          "internalType": "bool",
          "name": "",
          "type": "bool"
        }
      ],
      "stateMutability": "view",
      "type": "function"
    },
    {
      "inputs": [
        {
          "internalType": "address",
          "name": "",
          "type": "address"
        }
      ],
      "name": "whitelist",
      "outputs": [
        {
          "internalType": "bool",
          "name": "",
          "type": "bool"
        }
      ],
      "stateMutability": "view",
      "type": "function"
    }
  ],
  "bytecode": "0x608060405234801561001057600080fd5b5060008060006101000a81548173ffffffffffffffffffffffffffffffffffffffff021916908373ffffffffffffffffffffffffffffffffffffffff16021790555060008060146101000a81548160ff02191690831515021790555060008060156101000a81548160ff02191690831515021790555060008060166101000a81548160ff0219169083151502179055506128f2806100af6000396000f3fe608060405234801561001057600080fd5b506004361061012c5760003560e01c806385a38635116100ad5780639b19251a116100715780639b19251a146102ea578063af8102081461031a578063b2b98ed214610338578063dcd6a5cd14610357578063eb2119db146103735761012c565b806385a386351461026a5780638da5cb5b14610288578063909741a4146102a65780639335f956146102b05780639ad01ea8146102ba5761012c565b806330c713c7116100f457806330c713c7146101ec57806338db6dd31461020a5780634e71e0c81461022657806352303b8c1461023057806371a4141a146102605761012c565b8063054648b214610131578063101158af1461014d57806312b1d5ac1461016b5780631de43c4b1461019d5780632e6997fe146101ce575b600080fd5b61014b6004803603810190610146919061187d565b6103a3565b005b610155610663565b60405161016291906118c5565b60405180910390f35b61018560048036038101906101809190611916565b610676565b60405161019493929190611961565b60405180910390f35b6101b760048036038101906101b29190611916565b6106f0565b6040516101c5929190611998565b60405180910390f35b6101d6610744565b6040516101e39190611abd565b60405180910390f35b6101f4610803565b6040516102019190611bd0565b60405180910390f35b610224600480360381019061021f919061187d565b610918565b005b61022e610b6c565b005b61024a6004803603810190610245919061187d565b610c80565b60405161025791906118c5565b60405180910390f35b610268610ca0565b005b610272610db4565b60405161027f91906118c5565b60405180910390f35b610290610dc7565b60405161029d9190611bf2565b60405180910390f35b6102ae610deb565b005b6102b8610f7f565b005b6102d460048036038101906102cf919061187d565b611039565b6040516102e191906118c5565b60405180910390f35b61030460048036038101906102ff919061187d565b611059565b60405161031191906118c5565b60405180910390f35b610322611079565b60405161032f91906118c5565b60405180910390f35b61034061108c565b60405161034e929190611cbc565b60405180910390f35b610371600480360381019061036c9190611916565b6113a0565b005b61038d6004803603810190610388919061187d565b6117c4565b60405161039a91906118c5565b60405180910390f35b60008054906101000a900473ffffffffffffffffffffffffffffffffffffffff1673ffffffffffffffffffffffffffffffffffffffff163373ffffffffffffffffffffffffffffffffffffffff1614610431576040517f08c379a000000000000000000000000000000000000000000000000000000000815260040161042890611d6f565b60405180910390fd5b600060149054906101000a900460ff1615610481576040517f08c379a000000000000000000000000000000000000000000000000000000000815260040161047890611e01565b60405180910390fd5b600060159054906101000a900460ff16156104d1576040517f08c379a00000000000000000000000000000000000000000000000000000000081526004016104c890611e6d565b60405180910390fd5b600360008273ffffffffffffffffffffffffffffffffffffffff1673ffffffffffffffffffffffffffffffffffffffff16815260200190815260200160002060009054906101000a900460ff161561055e576040517f08c379a000000000000000000000000000000000000000000000000000000000815260040161055590611ed9565b60405180910390fd5b600160405180604001604052808373ffffffffffffffffffffffffffffffffffffffff1681526020016000815250908060018154018082558091505060019003906000526020600020906002020160009091909190915060008201518160000160006101000a81548173ffffffffffffffffffffffffffffffffffffffff021916908373ffffffffffffffffffffffffffffffffffffffff1602179055506020820151816001015550506001600360008373ffffffffffffffffffffffffffffffffffffffff1673ffffffffffffffffffffffffffffffffffffffff16815260200190815260200160002060006101000a81548160ff02191690831515021790555050565b600060149054906101000a900460ff1681565b6002818154811061068657600080fd5b90600052602060002090600302016000915090508060000160009054906101000a900473ffffffffffffffffffffffffffffffffffffffff16908060010160009054906101000a900473ffffffffffffffffffffffffffffffffffffffff16908060020154905083565b6001818154811061070057600080fd5b90600052602060002090600202016000915090508060000160009054906101000a900473ffffffffffffffffffffffffffffffffffffffff16908060010154905082565b60606001805480602002602001604051908101604052809291908181526020016000905b828210156107fa57838290600052602060002090600202016040518060400160405290816000820160009054906101000a900473ffffffffffffffffffffffffffffffffffffffff1673ffffffffffffffffffffffffffffffffffffffff1673ffffffffffffffffffffffffffffffffffffffff16815260200160018201548152505081526020019060010190610768565b50505050905090565b60606002805480602002602001604051908101604052809291908181526020016000905b8282101561090f57838290600052602060002090600302016040518060600160405290816000820160009054906101000a900473ffffffffffffffffffffffffffffffffffffffff1673ffffffffffffffffffffffffffffffffffffffff1673ffffffffffffffffffffffffffffffffffffffff1681526020016001820160009054906101000a900473ffffffffffffffffffffffffffffffffffffffff1673ffffffffffffffffffffffffffffffffffffffff1673ffffffffffffffffffffffffffffffffffffffff16815260200160028201548152505081526020019060010190610827565b50505050905090565b60008054906101000a900473ffffffffffffffffffffffffffffffffffffffff1673ffffffffffffffffffffffffffffffffffffffff163373ffffffffffffffffffffffffffffffffffffffff16146109a6576040517f08c379a000000000000000000000000000000000000000000000000000000000815260040161099d90611f45565b60405180910390fd5b60008054906101000a900473ffffffffffffffffffffffffffffffffffffffff1673ffffffffffffffffffffffffffffffffffffffff168173ffffffffffffffffffffffffffffffffffffffff1603610a34576040517f08c379a0000000000000000000000000000000000000000000000000000000008152600401610a2b90611fd7565b60405180910390fd5b600060159054906101000a900460ff1615610a84576040517f08c379a0000000000000000000000000000000000000000000000000000000008152600401610a7b90611e6d565b60405180910390fd5b600560008273ffffffffffffffffffffffffffffffffffffffff1673ffffffffffffffffffffffffffffffffffffffff16815260200190815260200160002060009054906101000a900460ff1615610b11576040517f08c379a0000000000000000000000000000000000000000000000000000000008152600401610b0890612043565b60405180910390fd5b6001600560008373ffffffffffffffffffffffffffffffffffffffff1673ffffffffffffffffffffffffffffffffffffffff16815260200190815260200160002060006101000a81548160ff02191690831515021790555050565b600073ffffffffffffffffffffffffffffffffffffffff1660008054906101000a900473ffffffffffffffffffffffffffffffffffffffff1673ffffffffffffffffffffffffffffffffffffffff1614610bfb576040517f08c379a0000000000000000000000000000000000000000000000000000000008152600401610bf2906120af565b60405180910390fd5b336000806101000a81548173ffffffffffffffffffffffffffffffffffffffff021916908373ffffffffffffffffffffffffffffffffffffffff1602179055503373ffffffffffffffffffffffffffffffffffffffff167fecc717caa84c9daa46bb6b26d28ecb71e7a9c80028f5bac1983acf4f698c863e60405160405180910390a2565b60036020528060005260406000206000915054906101000a900460ff1681565b60008054906101000a900473ffffffffffffffffffffffffffffffffffffffff1673ffffffffffffffffffffffffffffffffffffffff163373ffffffffffffffffffffffffffffffffffffffff1614610d2e576040517f08c379a0000000000000000000000000000000000000000000000000000000008152600401610d2590612167565b60405180910390fd5b600060149054906101000a900460ff16610d7d576040517f08c379a0000000000000000000000000000000000000000000000000000000008152600401610d74906121d3565b60405180910390fd5b6001600060156101000a81548160ff02191690831515021790555060008060146101000a81548160ff021916908315150217905550565b600060159054906101000a900460ff1681565b60008054906101000a900473ffffffffffffffffffffffffffffffffffffffff1681565b60008054906101000a900473ffffffffffffffffffffffffffffffffffffffff1673ffffffffffffffffffffffffffffffffffffffff163373ffffffffffffffffffffffffffffffffffffffff1614610e79576040517f08c379a0000000000000000000000000000000000000000000000000000000008152600401610e7090612167565b60405180910390fd5b60026001805490501015610ec2576040517f08c379a0000000000000000000000000000000000000000000000000000000008152600401610eb99061228b565b60405180910390fd5b600060149054906101000a900460ff1615610f12576040517f08c379a0000000000000000000000000000000000000000000000000000000008152600401610f09906122f7565b60405180910390fd5b600060159054906101000a900460ff1615610f62576040517f08c379a0000000000000000000000000000000000000000000000000000000008152600401610f5990612389565b60405180910390fd5b6001600060146101000a81548160ff021916908315150217905550565b60008054906101000a900473ffffffffffffffffffffffffffffffffffffffff1673ffffffffffffffffffffffffffffffffffffffff163373ffffffffffffffffffffffffffffffffffffffff161461100d576040517f08c379a0000000000000000000000000000000000000000000000000000000008152600401611004906123f5565b60405180910390fd5b600060169054906101000a900460ff1615600060166101000a81548160ff021916908315150217905550565b60046020528060005260406000206000915054906101000a900460ff1681565b60056020528060005260406000206000915054906101000a900460ff1681565b600060169054906101000a900460ff1681565b606060008060149054906101000a900460ff16156110df576040517f08c379a00000000000000000000000000000000000000000000000000000000081526004016110d690612461565b60405180910390fd5b60026001805490501015611128576040517f08c379a000000000000000000000000000000000000000000000000000000000815260040161111f906124f3565b60405180910390fd5b600060159054906101000a900460ff16611177576040517f08c379a000000000000000000000000000000000000000000000000000000000815260040161116e9061255f565b60405180910390fd5b6000805b6001805490508110156111f157816001828154811061119d5761119c61257f565b5b90600052602060002090600202016001015411156111de57600181815481106111c9576111c861257f565b5b90600052602060002090600202016001015491505b80806111e9906125dd565b91505061117b565b506000805b6001805490508110156112515782600182815481106112185761121761257f565b5b9060005260206000209060020201600101540361123e57818061123a906125dd565b9250505b8080611249906125dd565b9150506111f6565b5060008167ffffffffffffffff81111561126e5761126d612625565b5b60405190808252806020026020018201604052801561129c5781602001602082028036833780820191505090505b5090506000805b6001805490508110156113915784600182815481106112c5576112c461257f565b5b9060005260206000209060020201600101540361137e57600181815481106112f0576112ef61257f565b5b906000526020600020906002020160000160009054906101000a900473ffffffffffffffffffffffffffffffffffffffff168383815181106113355761133461257f565b5b602002602001019073ffffffffffffffffffffffffffffffffffffffff16908173ffffffffffffffffffffffffffffffffffffffff1681525050818061137a906125dd565b9250505b8080611389906125dd565b9150506112a3565b50818495509550505050509091565b600060149054906101000a900460ff166113ef576040517f08c379a00000000000000000000000000000000000000000000000000000000081526004016113e6906126c6565b60405180910390fd5b60008054906101000a900473ffffffffffffffffffffffffffffffffffffffff1673ffffffffffffffffffffffffffffffffffffffff163373ffffffffffffffffffffffffffffffffffffffff160361147d576040517f08c379a000000000000000000000000000000000000000000000000000000000815260040161147490612732565b60405180910390fd5b600560003373ffffffffffffffffffffffffffffffffffffffff1673ffffffffffffffffffffffffffffffffffffffff16815260200190815260200160002060009054906101000a900460ff16611509576040517f08c379a00000000000000000000000000000000000000000000000000000000081526004016115009061279e565b60405180910390fd5b6001805490508110611550576040517f08c379a00000000000000000000000000000000000000000000000000000000081526004016115479061280a565b60405180910390fd5b600460003373ffffffffffffffffffffffffffffffffffffffff1673ffffffffffffffffffffffffffffffffffffffff16815260200190815260200160002060009054906101000a900460ff16156115dd576040517f08c379a00000000000000000000000000000000000000000000000000000000081526004016115d49061289c565b60405180910390fd5b6001600460003373ffffffffffffffffffffffffffffffffffffffff1673ffffffffffffffffffffffffffffffffffffffff16815260200190815260200160002060006101000a81548160ff021916908315150217905550600181815481106116495761164861257f565b5b9060005260206000209060020201600101600081548092919061166b906125dd565b9190505550600260405180606001604052803373ffffffffffffffffffffffffffffffffffffffff168152602001600184815481106116ad576116ac61257f565b5b906000526020600020906002020160000160009054906101000a900473ffffffffffffffffffffffffffffffffffffffff1673ffffffffffffffffffffffffffffffffffffffff16815260200142815250908060018154018082558091505060019003906000526020600020906003020160009091909190915060008201518160000160006101000a81548173ffffffffffffffffffffffffffffffffffffffff021916908373ffffffffffffffffffffffffffffffffffffffff16021790555060208201518160010160006101000a81548173ffffffffffffffffffffffffffffffffffffffff021916908373ffffffffffffffffffffffffffffffffffffffff16021790555060408201518160020155505050565b6000600560008373ffffffffffffffffffffffffffffffffffffffff1673ffffffffffffffffffffffffffffffffffffffff16815260200190815260200160002060009054906101000a900460ff169050919050565b600080fd5b600073ffffffffffffffffffffffffffffffffffffffff82169050919050565b600061184a8261181f565b9050919050565b61185a8161183f565b811461186557600080fd5b50565b60008135905061187781611851565b92915050565b6000602082840312156118935761189261181a565b5b60006118a184828501611868565b91505092915050565b60008115159050919050565b6118bf816118aa565b82525050565b60006020820190506118da60008301846118b6565b92915050565b6000819050919050565b6118f3816118e0565b81146118fe57600080fd5b50565b600081359050611910816118ea565b92915050565b60006020828403121561192c5761192b61181a565b5b600061193a84828501611901565b91505092915050565b61194c8161183f565b82525050565b61195b816118e0565b82525050565b60006060820190506119766000830186611943565b6119836020830185611943565b6119906040830184611952565b949350505050565b60006040820190506119ad6000830185611943565b6119ba6020830184611952565b9392505050565b600081519050919050565b600082825260208201905092915050565b6000819050602082019050919050565b6119f68161183f565b82525050565b611a05816118e0565b82525050565b604082016000820151611a2160008501826119ed565b506020820151611a3460208501826119fc565b50505050565b6000611a468383611a0b565b60408301905092915050565b6000602082019050919050565b6000611a6a826119c1565b611a7481856119cc565b9350611a7f836119dd565b8060005b83811015611ab0578151611a978882611a3a565b9750611aa283611a52565b925050600181019050611a83565b5085935050505092915050565b60006020820190508181036000830152611ad78184611a5f565b905092915050565b600081519050919050565b600082825260208201905092915050565b6000819050602082019050919050565b606082016000820151611b2160008501826119ed565b506020820151611b3460208501826119ed565b506040820151611b4760408501826119fc565b50505050565b6000611b598383611b0b565b60608301905092915050565b6000602082019050919050565b6000611b7d82611adf565b611b878185611aea565b9350611b9283611afb565b8060005b83811015611bc3578151611baa8882611b4d565b9750611bb583611b65565b925050600181019050611b96565b5085935050505092915050565b60006020820190508181036000830152611bea8184611b72565b905092915050565b6000602082019050611c076000830184611943565b92915050565b600081519050919050565b600082825260208201905092915050565b6000819050602082019050919050565b6000611c4583836119ed565b60208301905092915050565b6000602082019050919050565b6000611c6982611c0d565b611c738185611c18565b9350611c7e83611c29565b8060005b83811015611caf578151611c968882611c39565b9750611ca183611c51565b925050600181019050611c82565b5085935050505092915050565b60006040820190508181036000830152611cd68185611c5e565b9050611ce56020830184611952565b9392505050565b600082825260208201905092915050565b7f596f75206172656e277420746865206f776e65722c204f6e6c79206f776e657260008201527f206861732074686520726967687420746f206164642063616e64696461746573602082015250565b6000611d59604083611cec565b9150611d6482611cfd565b604082019050919050565b60006020820190508181036000830152611d8881611d4c565b9050919050565b7f4f776e657220776173206e6f7420616c6c6f77656420746f206164642063616e60008201527f6469646174657320647572696e6720766f74696e672073746172746564000000602082015250565b6000611deb603d83611cec565b9150611df682611d8f565b604082019050919050565b60006020820190508181036000830152611e1a81611dde565b9050919050565b7f566f74696e672068617320656e64656400000000000000000000000000000000600082015250565b6000611e57601083611cec565b9150611e6282611e21565b602082019050919050565b60006020820190508181036000830152611e8681611e4a565b9050919050565b7f5468652063616e64696461746520686173206265656e20616464656400000000600082015250565b6000611ec3601c83611cec565b9150611ece82611e8d565b602082019050919050565b60006020820190508181036000830152611ef281611eb6565b9050919050565b7f4f6e6c79206f776e65722063616e20726567697374657220766f746572730000600082015250565b6000611f2f601e83611cec565b9150611f3a82611ef9565b602082019050919050565b60006020820190508181036000830152611f5e81611f22565b9050919050565b7f4f776e65722063616e6e6f74206265207265676973746572656420617320766f60008201527f7465720000000000000000000000000000000000000000000000000000000000602082015250565b6000611fc1602383611cec565b9150611fcc82611f65565b604082019050919050565b60006020820190508181036000830152611ff081611fb4565b9050919050565b7f566f74657220616c726561647920726567697374657265640000000000000000600082015250565b600061202d601883611cec565b915061203882611ff7565b602082019050919050565b6000602082019050818103600083015261205c81612020565b9050919050565b7f4f776e657220616c726561647920736574000000000000000000000000000000600082015250565b6000612099601183611cec565b91506120a482612063565b602082019050919050565b600060208201905081810360008301526120c88161208c565b9050919050565b7f596f75206172656e277420746865206f776e65722c204f6e6c79206f776e657260008201527f206861732074686520726967687420746f20696e69746961746520746865207660208201527f6f74696e67000000000000000000000000000000000000000000000000000000604082015250565b6000612151604583611cec565b915061215c826120cf565b606082019050919050565b6000602082019050818103600083015261218081612144565b9050919050565b7f4e6f20766f74696e67206973206f6e20676f696e670000000000000000000000600082015250565b60006121bd601583611cec565b91506121c882612187565b602082019050919050565b600060208201905081810360008301526121ec816121b0565b9050919050565b7f43616e64696461746573206d757374206265206d6f7265207468616e206f6e6560008201527f206f72206174206c656173742074776f20746f2073746172742074686520766f60208201527f74696e6700000000000000000000000000000000000000000000000000000000604082015250565b6000612275604483611cec565b9150612280826121f3565b606082019050919050565b600060208201905081810360008301526122a481612268565b9050919050565b7f566f74696e672068617320737461727465640000000000000000000000000000600082015250565b60006122e1601283611cec565b91506122ec826122ab565b602082019050919050565b60006020820190508181036000830152612310816122d4565b9050919050565b7f566f74696e672068617320656e64656420616e642063616e6e6f74206265207260008201527f6573746172746564000000000000000000000000000000000000000000000000602082015250565b6000612373602883611cec565b915061237e82612317565b604082019050919050565b600060208201905081810360008301526123a281612366565b9050919050565b7f4f6e6c79206f776e65722063616e20746f67676c65206869646520766f746573600082015250565b60006123df602083611cec565b91506123ea826123a9565b602082019050919050565b6000602082019050818103600083015261240e816123d2565b9050919050565b7f566f74696e6720686173206e6f74207374617274656400000000000000000000600082015250565b600061244b601683611cec565b915061245682612415565b602082019050919050565b6000602082019050818103600083015261247a8161243e565b9050919050565b7f43616e64696461746573206d757374206265206d6f7265207468616e206f6e6560008201527f206f72206174206c656173742074776f00000000000000000000000000000000602082015250565b60006124dd603083611cec565b91506124e882612481565b604082019050919050565b6000602082019050818103600083015261250c816124d0565b9050919050565b7f566f74696e6720697320696e2070726f67726573730000000000000000000000600082015250565b6000612549601583611cec565b915061255482612513565b602082019050919050565b600060208201905081810360008301526125788161253c565b9050919050565b7f4e487b7100000000000000000000000000000000000000000000000000000000600052603260045260246000fd5b7f4e487b7100000000000000000000000000000000000000000000000000000000600052601160045260246000fd5b60006125e8826118e0565b91507fffffffffffffffffffffffffffffffffffffffffffffffffffffffffffffffff820361261a576126196125ae565b5b600182019050919050565b7f4e487b7100000000000000000000000000000000000000000000000000000000600052604160045260246000fd5b7f566f74696e6720686173206e6f742073746172746564206f7220566f74696e6760008201527f2068617320656e64656400000000000000000000000000000000000000000000602082015250565b60006126b0602a83611cec565b91506126bb82612654565b604082019050919050565b600060208201905081810360008301526126df816126a3565b9050919050565b7f4f776e657220686173206e6f20726967687420746f20766f7465000000000000600082015250565b600061271c601a83611cec565b9150612727826126e6565b602082019050919050565b6000602082019050818103600083015261274b8161270f565b9050919050565b7f596f7520617265206e6f74207265676973746572656420746f20766f74650000600082015250565b6000612788601e83611cec565b915061279382612752565b602082019050919050565b600060208201905081810360008301526127b78161277b565b9050919050565b7f43616e646964617465206e6f7420666f756e6400000000000000000000000000600082015250565b60006127f4601383611cec565b91506127ff826127be565b602082019050919050565b60006020820190508181036000830152612823816127e7565b9050919050565b7f416c6c20766f7465727320617265206f6e6c7920616c6c6f77656420746f207660008201527f6f7465206f6e6365000000000000000000000000000000000000000000000000602082015250565b6000612886602883611cec565b91506128918261282a565b604082019050919050565b600060208201905081810360008301526128b581612879565b905091905056fea26469706673582212200fe0fdd4a1344d04b36940b0981ee8f80e3e4f348a7651df4d3999b1f5ef783d64736f6c63430008110033",
  "linkReferences": {},
  "deployedLinkReferences": {}
}